{
  "_format": "hh-sol-artifact-1",
  "contractName": "ContractApi",
  "sourceName": "contracts/ContractApi.sol",
  "abi": [
    {
      "inputs": [],
      "name": "count",
      "outputs": [
        {
          "internalType": "uint256",
          "name": "",
          "type": "uint256"
        }
      ],
      "stateMutability": "view",
      "type": "function"
    },
    {
      "inputs": [
        {
          "internalType": "string",
          "name": "",
          "type": "string"
        }
      ],
      "name": "details",
      "outputs": [
        {
          "internalType": "uint256",
          "name": "id",
          "type": "uint256"
        },
        {
          "internalType": "string",
          "name": "temperature",
          "type": "string"
        },
        {
          "internalType": "string",
          "name": "humidity",
          "type": "string"
        },
        {
          "internalType": "string",
          "name": "location",
          "type": "string"
        }
      ],
      "stateMutability": "view",
      "type": "function"
    },
    {
      "inputs": [
        {
          "internalType": "string",
          "name": "_identifier",
          "type": "string"
        }
      ],
      "name": "getLogInfo",
      "outputs": [
        {
          "components": [
            {
              "internalType": "uint256",
              "name": "id",
              "type": "uint256"
            },
            {
              "internalType": "string",
              "name": "temperature",
              "type": "string"
            },
            {
              "internalType": "string",
              "name": "humidity",
              "type": "string"
            },
            {
              "internalType": "string",
              "name": "location",
              "type": "string"
            }
          ],
          "internalType": "struct ContractApi.Detail",
          "name": "",
          "type": "tuple"
        }
      ],
      "stateMutability": "view",
      "type": "function"
    },
    {
      "inputs": [
        {
          "internalType": "string",
          "name": "_identifier",
          "type": "string"
        },
        {
          "internalType": "string",
          "name": "_temperature",
          "type": "string"
        },
        {
          "internalType": "string",
          "name": "_humidity",
          "type": "string"
        },
        {
          "internalType": "string",
          "name": "_location",
          "type": "string"
        }
      ],
      "name": "log",
      "outputs": [],
      "stateMutability": "nonpayable",
      "type": "function"
    },
    {
      "inputs": [
        {
          "internalType": "string",
          "name": "_identifier",
          "type": "string"
        }
      ],
      "name": "startLogging",
      "outputs": [],
      "stateMutability": "nonpayable",
      "type": "function"
    }
  ],
  "bytecode": "0x60806040526000805534801561001457600080fd5b50610c8f806100246000396000f3fe608060405234801561001057600080fd5b50600436106100575760003560e01c806306661abd1461005c5780631d8ca41a1461007a578063a19556d414610096578063c9552b4f146100c9578063de68f20a146100f9575b600080fd5b610064610115565b60405161007191906106bd565b60405180910390f35b610094600480360381019061008f9190610832565b61011b565b005b6100b060048036038101906100ab9190610832565b61015b565b6040516100c09493929190610903565b60405180910390f35b6100e360048036038101906100de9190610832565b610339565b6040516100f09190610a27565b60405180910390f35b610113600480360381019061010e9190610a49565b610531565b005b60005481565b600160005461012a9190610b4f565b6000819055506000546001826040516101439190610be1565b90815260200160405180910390206000018190555050565b60018180516020810182018051848252602083016020850120818352809550505050505060009150905080600001549080600101805461019a90610c27565b80601f01602080910402602001604051908101604052809291908181526020018280546101c690610c27565b80156102135780601f106101e857610100808354040283529160200191610213565b820191906000526020600020905b8154815290600101906020018083116101f657829003601f168201915b50505050509080600201805461022890610c27565b80601f016020809104026020016040519081016040528092919081815260200182805461025490610c27565b80156102a15780601f10610276576101008083540402835291602001916102a1565b820191906000526020600020905b81548152906001019060200180831161028457829003601f168201915b5050505050908060030180546102b690610c27565b80601f01602080910402602001604051908101604052809291908181526020018280546102e290610c27565b801561032f5780601f106103045761010080835404028352916020019161032f565b820191906000526020600020905b81548152906001019060200180831161031257829003601f168201915b5050505050905084565b6103416105d9565b6001826040516103519190610be1565b90815260200160405180910390206040518060800160405290816000820154815260200160018201805461038490610c27565b80601f01602080910402602001604051908101604052809291908181526020018280546103b090610c27565b80156103fd5780601f106103d2576101008083540402835291602001916103fd565b820191906000526020600020905b8154815290600101906020018083116103e057829003601f168201915b5050505050815260200160028201805461041690610c27565b80601f016020809104026020016040519081016040528092919081815260200182805461044290610c27565b801561048f5780601f106104645761010080835404028352916020019161048f565b820191906000526020600020905b81548152906001019060200180831161047257829003601f168201915b505050505081526020016003820180546104a890610c27565b80601f01602080910402602001604051908101604052809291908181526020018280546104d490610c27565b80156105215780601f106104f657610100808354040283529160200191610521565b820191906000526020600020905b81548152906001019060200180831161050457829003601f168201915b5050505050815250509050919050565b826001856040516105429190610be1565b90815260200160405180910390206001019080519060200190610566929190610601565b50816001856040516105789190610be1565b9081526020016040518091039020600201908051906020019061059c929190610601565b50806001856040516105ae9190610be1565b908152602001604051809103902060030190805190602001906105d2929190610601565b5050505050565b6040518060800160405280600081526020016060815260200160608152602001606081525090565b82805461060d90610c27565b90600052602060002090601f01602090048101928261062f5760008555610676565b82601f1061064857805160ff1916838001178555610676565b82800160010185558215610676579182015b8281111561067557825182559160200191906001019061065a565b5b5090506106839190610687565b5090565b5b808211156106a0576000816000905550600101610688565b5090565b6000819050919050565b6106b7816106a4565b82525050565b60006020820190506106d260008301846106ae565b92915050565b6000604051905090565b600080fd5b600080fd5b600080fd5b600080fd5b6000601f19601f8301169050919050565b7f4e487b7100000000000000000000000000000000000000000000000000000000600052604160045260246000fd5b61073f826106f6565b810181811067ffffffffffffffff8211171561075e5761075d610707565b5b80604052505050565b60006107716106d8565b905061077d8282610736565b919050565b600067ffffffffffffffff82111561079d5761079c610707565b5b6107a6826106f6565b9050602081019050919050565b82818337600083830152505050565b60006107d56107d084610782565b610767565b9050828152602081018484840111156107f1576107f06106f1565b5b6107fc8482856107b3565b509392505050565b600082601f830112610819576108186106ec565b5b81356108298482602086016107c2565b91505092915050565b600060208284031215610848576108476106e2565b5b600082013567ffffffffffffffff811115610866576108656106e7565b5b61087284828501610804565b91505092915050565b600081519050919050565b600082825260208201905092915050565b60005b838110156108b557808201518184015260208101905061089a565b838111156108c4576000848401525b50505050565b60006108d58261087b565b6108df8185610886565b93506108ef818560208601610897565b6108f8816106f6565b840191505092915050565b600060808201905061091860008301876106ae565b818103602083015261092a81866108ca565b9050818103604083015261093e81856108ca565b9050818103606083015261095281846108ca565b905095945050505050565b610966816106a4565b82525050565b600082825260208201905092915050565b60006109888261087b565b610992818561096c565b93506109a2818560208601610897565b6109ab816106f6565b840191505092915050565b60006080830160008301516109ce600086018261095d565b50602083015184820360208601526109e6828261097d565b91505060408301518482036040860152610a00828261097d565b91505060608301518482036060860152610a1a828261097d565b9150508091505092915050565b60006020820190508181036000830152610a4181846109b6565b905092915050565b60008060008060808587031215610a6357610a626106e2565b5b600085013567ffffffffffffffff811115610a8157610a806106e7565b5b610a8d87828801610804565b945050602085013567ffffffffffffffff811115610aae57610aad6106e7565b5b610aba87828801610804565b935050604085013567ffffffffffffffff811115610adb57610ada6106e7565b5b610ae787828801610804565b925050606085013567ffffffffffffffff811115610b0857610b076106e7565b5b610b1487828801610804565b91505092959194509250565b7f4e487b7100000000000000000000000000000000000000000000000000000000600052601160045260246000fd5b6000610b5a826106a4565b9150610b65836106a4565b9250827fffffffffffffffffffffffffffffffffffffffffffffffffffffffffffffffff03821115610b9a57610b99610b20565b5b828201905092915050565b600081905092915050565b6000610bbb8261087b565b610bc58185610ba5565b9350610bd5818560208601610897565b80840191505092915050565b6000610bed8284610bb0565b915081905092915050565b7f4e487b7100000000000000000000000000000000000000000000000000000000600052602260045260246000fd5b60006002820490506001821680610c3f57607f821691505b60208210811415610c5357610c52610bf8565b5b5091905056fea264697066735822122027d4e935c9db04b00cc47c38b07240f7de769f68f48599664b362c5c21b3d8c764736f6c634300080b0033",
  "linkReferences": {},
  "deployedLinkReferences": {}
}