{
  "_format": "hh-sol-artifact-1",
  "contractName": "ContractApi",
  "sourceName": "contracts/ContractApi.sol",
  "abi": [
    {
      "inputs": [],
      "name": "count",
      "outputs": [
        {
          "internalType": "uint256",
          "name": "",
          "type": "uint256"
        }
      ],
      "stateMutability": "view",
      "type": "function"
    },
    {
      "inputs": [
        {
          "internalType": "string",
          "name": "",
          "type": "string"
        }
      ],
      "name": "details",
      "outputs": [
        {
          "internalType": "uint256",
          "name": "id",
          "type": "uint256"
        },
        {
          "internalType": "string",
          "name": "temperature",
          "type": "string"
        },
        {
          "internalType": "string",
          "name": "humidity",
          "type": "string"
        },
        {
          "internalType": "string",
          "name": "latitude",
          "type": "string"
        },
        {
          "internalType": "string",
          "name": "longtitude",
          "type": "string"
        }
      ],
      "stateMutability": "view",
      "type": "function"
    },
    {
      "inputs": [
        {
          "internalType": "string",
          "name": "_identifier",
          "type": "string"
        }
      ],
      "name": "getLogInfo",
      "outputs": [
        {
          "components": [
            {
              "internalType": "uint256",
              "name": "id",
              "type": "uint256"
            },
            {
              "internalType": "string",
              "name": "temperature",
              "type": "string"
            },
            {
              "internalType": "string",
              "name": "humidity",
              "type": "string"
            },
            {
              "internalType": "string",
              "name": "latitude",
              "type": "string"
            },
            {
              "internalType": "string",
              "name": "longtitude",
              "type": "string"
            }
          ],
          "internalType": "struct ContractApi.Detail",
          "name": "",
          "type": "tuple"
        }
      ],
      "stateMutability": "view",
      "type": "function"
    },
    {
      "inputs": [
        {
          "internalType": "string",
          "name": "_identifier",
          "type": "string"
        },
        {
          "internalType": "string",
          "name": "_temperature",
          "type": "string"
        },
        {
          "internalType": "string",
          "name": "_humidity",
          "type": "string"
        },
        {
          "internalType": "string",
          "name": "_latitude",
          "type": "string"
        },
        {
          "internalType": "string",
          "name": "_longtitude",
          "type": "string"
        }
      ],
      "name": "log",
      "outputs": [],
      "stateMutability": "nonpayable",
      "type": "function"
    },
    {
      "inputs": [
        {
          "internalType": "string",
          "name": "_identifier",
          "type": "string"
        }
      ],
      "name": "startLogging",
      "outputs": [],
      "stateMutability": "nonpayable",
      "type": "function"
    }
  ],
  "bytecode": "0x60806040526000805534801561001457600080fd5b50610e4d806100246000396000f3fe608060405234801561001057600080fd5b50600436106100575760003560e01c806306661abd1461005c5780631d8ca41a1461007a5780632b62f93514610096578063a19556d4146100b2578063c9552b4f146100e6575b600080fd5b610064610116565b604051610071919061081c565b60405180910390f35b610094600480360381019061008f9190610991565b61011c565b005b6100b060048036038101906100ab91906109da565b61015c565b005b6100cc60048036038101906100c79190610991565b61023b565b6040516100dd959493929190610b69565b60405180910390f35b61010060048036038101906100fb9190610991565b6104a7565b60405161010d9190610cbc565b60405180910390f35b60005481565b600160005461012b9190610d0d565b6000819055506000546001826040516101449190610d9f565b90815260200160405180910390206000018190555050565b8360018660405161016d9190610d9f565b90815260200160405180910390206001019080519060200190610191929190610731565b50826001866040516101a39190610d9f565b908152602001604051809103902060020190805190602001906101c7929190610731565b50816001866040516101d99190610d9f565b908152602001604051809103902060030190805190602001906101fd929190610731565b508060018660405161020f9190610d9f565b90815260200160405180910390206003019080519060200190610233929190610731565b505050505050565b60018180516020810182018051848252602083016020850120818352809550505050505060009150905080600001549080600101805461027a90610de5565b80601f01602080910402602001604051908101604052809291908181526020018280546102a690610de5565b80156102f35780601f106102c8576101008083540402835291602001916102f3565b820191906000526020600020905b8154815290600101906020018083116102d657829003601f168201915b50505050509080600201805461030890610de5565b80601f016020809104026020016040519081016040528092919081815260200182805461033490610de5565b80156103815780601f1061035657610100808354040283529160200191610381565b820191906000526020600020905b81548152906001019060200180831161036457829003601f168201915b50505050509080600301805461039690610de5565b80601f01602080910402602001604051908101604052809291908181526020018280546103c290610de5565b801561040f5780601f106103e45761010080835404028352916020019161040f565b820191906000526020600020905b8154815290600101906020018083116103f257829003601f168201915b50505050509080600401805461042490610de5565b80601f016020809104026020016040519081016040528092919081815260200182805461045090610de5565b801561049d5780601f106104725761010080835404028352916020019161049d565b820191906000526020600020905b81548152906001019060200180831161048057829003601f168201915b5050505050905085565b6104af6107b7565b6001826040516104bf9190610d9f565b90815260200160405180910390206040518060a0016040529081600082015481526020016001820180546104f290610de5565b80601f016020809104026020016040519081016040528092919081815260200182805461051e90610de5565b801561056b5780601f106105405761010080835404028352916020019161056b565b820191906000526020600020905b81548152906001019060200180831161054e57829003601f168201915b5050505050815260200160028201805461058490610de5565b80601f01602080910402602001604051908101604052809291908181526020018280546105b090610de5565b80156105fd5780601f106105d2576101008083540402835291602001916105fd565b820191906000526020600020905b8154815290600101906020018083116105e057829003601f168201915b5050505050815260200160038201805461061690610de5565b80601f016020809104026020016040519081016040528092919081815260200182805461064290610de5565b801561068f5780601f106106645761010080835404028352916020019161068f565b820191906000526020600020905b81548152906001019060200180831161067257829003601f168201915b505050505081526020016004820180546106a890610de5565b80601f01602080910402602001604051908101604052809291908181526020018280546106d490610de5565b80156107215780601f106106f657610100808354040283529160200191610721565b820191906000526020600020905b81548152906001019060200180831161070457829003601f168201915b5050505050815250509050919050565b82805461073d90610de5565b90600052602060002090601f01602090048101928261075f57600085556107a6565b82601f1061077857805160ff19168380011785556107a6565b828001600101855582156107a6579182015b828111156107a557825182559160200191906001019061078a565b5b5090506107b391906107e6565b5090565b6040518060a0016040528060008152602001606081526020016060815260200160608152602001606081525090565b5b808211156107ff5760008160009055506001016107e7565b5090565b6000819050919050565b61081681610803565b82525050565b6000602082019050610831600083018461080d565b92915050565b6000604051905090565b600080fd5b600080fd5b600080fd5b600080fd5b6000601f19601f8301169050919050565b7f4e487b7100000000000000000000000000000000000000000000000000000000600052604160045260246000fd5b61089e82610855565b810181811067ffffffffffffffff821117156108bd576108bc610866565b5b80604052505050565b60006108d0610837565b90506108dc8282610895565b919050565b600067ffffffffffffffff8211156108fc576108fb610866565b5b61090582610855565b9050602081019050919050565b82818337600083830152505050565b600061093461092f846108e1565b6108c6565b9050828152602081018484840111156109505761094f610850565b5b61095b848285610912565b509392505050565b600082601f8301126109785761097761084b565b5b8135610988848260208601610921565b91505092915050565b6000602082840312156109a7576109a6610841565b5b600082013567ffffffffffffffff8111156109c5576109c4610846565b5b6109d184828501610963565b91505092915050565b600080600080600060a086880312156109f6576109f5610841565b5b600086013567ffffffffffffffff811115610a1457610a13610846565b5b610a2088828901610963565b955050602086013567ffffffffffffffff811115610a4157610a40610846565b5b610a4d88828901610963565b945050604086013567ffffffffffffffff811115610a6e57610a6d610846565b5b610a7a88828901610963565b935050606086013567ffffffffffffffff811115610a9b57610a9a610846565b5b610aa788828901610963565b925050608086013567ffffffffffffffff811115610ac857610ac7610846565b5b610ad488828901610963565b9150509295509295909350565b600081519050919050565b600082825260208201905092915050565b60005b83811015610b1b578082015181840152602081019050610b00565b83811115610b2a576000848401525b50505050565b6000610b3b82610ae1565b610b458185610aec565b9350610b55818560208601610afd565b610b5e81610855565b840191505092915050565b600060a082019050610b7e600083018861080d565b8181036020830152610b908187610b30565b90508181036040830152610ba48186610b30565b90508181036060830152610bb88185610b30565b90508181036080830152610bcc8184610b30565b90509695505050505050565b610be181610803565b82525050565b600082825260208201905092915050565b6000610c0382610ae1565b610c0d8185610be7565b9350610c1d818560208601610afd565b610c2681610855565b840191505092915050565b600060a083016000830151610c496000860182610bd8565b5060208301518482036020860152610c618282610bf8565b91505060408301518482036040860152610c7b8282610bf8565b91505060608301518482036060860152610c958282610bf8565b91505060808301518482036080860152610caf8282610bf8565b9150508091505092915050565b60006020820190508181036000830152610cd68184610c31565b905092915050565b7f4e487b7100000000000000000000000000000000000000000000000000000000600052601160045260246000fd5b6000610d1882610803565b9150610d2383610803565b9250827fffffffffffffffffffffffffffffffffffffffffffffffffffffffffffffffff03821115610d5857610d57610cde565b5b828201905092915050565b600081905092915050565b6000610d7982610ae1565b610d838185610d63565b9350610d93818560208601610afd565b80840191505092915050565b6000610dab8284610d6e565b915081905092915050565b7f4e487b7100000000000000000000000000000000000000000000000000000000600052602260045260246000fd5b60006002820490506001821680610dfd57607f821691505b60208210811415610e1157610e10610db6565b5b5091905056fea264697066735822122083114fcc71a940f41273055e44976b47d0fd8c2ced8c9379d22b03e9091138d664736f6c634300080b0033",
  "linkReferences": {},
  "deployedLinkReferences": {}
}